:020000040800F2
:100000000050002091020008E1020008E10200080F
:10001000E1020008E1020008E1020008000000001F
:10002000000000000000000000000000E1020008E5
:10003000E102000800000000E1020008E1020008FF
:10004000E1020008E1020008E1020008E102000804
:10005000E1020008E1020008E1020008E1020008F4
:10006000E1020008E1020008E1020008E1020008E4
:10007000E1020008E1020008E1020008E1020008D4
:10008000E1020008E1020008E1020008E1020008C4
:10009000E1020008E1020008E1020008E1020008B4
:1000A000E1020008E1020008E1020008E1020008A4
:1000B000E1020008E1020008E1020008E102000894
:1000C000E1020008E1020008E1020008E102000884
:1000D000E1020008E1020008E1020008E102000874
:1000E000E1020008E102000800000000E10200084F
:1000F000E1020008E1020008E1020008E102000854
:10010000E1020008E1020008E1020008E102000843
:10011000E1020008E1020008E1020008E102000833
:10012000E1020008E1020008E1020008E102000823
:1001300010B5054C237833B9044B13B10448AFF321
:1001400000800123237010BD00000020000000008B
:100150002C03000808B5034B1BB103490348AFF358
:10016000008008BD00000000040000202C030008EF
:1001700080B500AF00F00CF800F050F800F06AF81D
:10018000024800F075F800BFF8E700BF80FC0A00E5
:1001900080B400AF1F4B1B681E4A43F480331360CA
:1001A00000BF1C4B1B6803F40033002BF9D0194B24
:1001B0005B68184A43F480335360164B5B68154AFA
:1001C00043F4E0135360134B1B68124A43F08073EF
:1001D000136000BF0F4B1B6803F00073002BF9D0B6
:1001E0000D4B04221A600B4B5B680A4A43F0020372
:1001F000536000BF074B5B6803F00C03082BF9D179
:10020000044B1B68034A23F00103136000BFBD4683
:1002100080BC7047001002400020024080B400AF54
:100220000A4B9B69094A43F010039361084B5B68D2
:10023000074A43F480135360054B5B68044A23F478
:100240004003536000BFBD4680BC704700100240B1
:100250000010014080B400AF044BDB68034A83F414
:100260000053D36000BFBD4680BC70470010014002
:1002700080B483B000AF786000BF7B685A1E7A609C
:10028000002BFAD100BF00BF0C37BD4680BC7047C1
:100290000D488546AFF300800C480D490D4A0023F8
:1002A00002E0D458C4500433C4188C42F9D30A4A2B
:1002B0000A4C002301E013600432A242FBD300F099
:1002C00011F8FFF755FFFEE7005000200000002066
:1002D000000000204C030008000000201C0000204B
:1002E000FEE7000070B500260C4D0D4C641BA410F9
:1002F000A64209D100F01AF800260A4D0A4C641BE8
:10030000A410A64205D170BD55F8043B98470136AC
:10031000EEE755F8043B98470136F2E7440300083E
:10032000440300084403000848030008F8B500BF70
:10033000F8BC08BC9E467047F8B500BFF8BC08BCC6
:040340009E4670471E
:040344005501000857
:040348003101000877
:04000005080002915C
:00000001FF
