:020000040800F2
:1000000000500020FD0300084D0400084D040008C6
:100010004D0400084D0400084D04000800000000D5
:100020000000000000000000000000004D04000877
:100030004D040008000000004D040008F102000813
:100040004D0400084D0400084D0400084D0400084C
:100050004D0400084D0400084D0400084D0400083C
:100060004D0400084D0400084D0400084D0400082C
:100070004D0400084D0400084D0400084D0400081C
:100080004D0400084D0400084D0400084D0400080C
:100090004D0400084D0400084D0400084D040008FC
:1000A0004D0400084D0400084D0400084D040008EC
:1000B0004D0400084D0400084D0400084D040008DC
:1000C0004D0400084D0400084D0400084D040008CC
:1000D0004D0400084D0400084D0400084D040008BC
:1000E0004D0400084D040008000000004D04000805
:1000F0004D0400084D0400084D0400084D0400089C
:100100004D0400084D0400084D0400084D0400088B
:100110004D0400084D0400084D0400084D0400087B
:100120004D0400084D0400084D0400084D0400086B
:1001300010B5054C237833B9044B13B10448AFF321
:1001400000800123237010BD040000200000000087
:100150009804000808B5034B1BB103490348AFF3EB
:10016000008008BD0000000008000020980400087E
:1001700080B500AF00F00CF800F05CF800F076F805
:1001800000F090F841F2883000F09AF800BFF7E7ED
:1001900080B400AF254B1B68244A43F480331360BE
:1001A00000BF224B1B6803F40033002BF9D01F4B18
:1001B0005B681E4A43F4803353601C4B5B681B4AE8
:1001C00043F4E0135360194B5B68184A43F400533F
:1001D0005360164B5B68154A43F4A0635360134B9E
:1001E0001B68124A43F08073136000BF0F4B1B68FB
:1001F00003F00073002BF9D00D4B04221A600B4B57
:100200005B680A4A43F00203536000BF074B5B6818
:1002100003F00C03082BF9D1044B1B68034A23F0AD
:100220000103136000BFBD4680BC70470010024050
:100230000020024080B500AF00F06EF8084B1B684C
:10024000084AA2FB03239B09074A013B5360064B64
:1002500000229A60044B07221A6000BF80BD00BFD5
:1002600000000020D34D621010E000E080B400AF29
:100270000A4B9B69094A43F010039361084B5B6882
:10028000074A43F480135360054B5B68044A23F428
:100290004003536000BFBD4680BC70470010024061
:1002A0000010014080B400AF044BDB68034A83F4C4
:1002B0000053D36000BFBD4680BC704700100140B2
:1002C00080B485B000AF7860084B1B68FB6000BF4E
:1002D000064B1A68FB68D31A7A689A42F8D800BFAE
:1002E00000BF1437BD4680BC704700BF200000200F
:1002F00080B400AF044B1B680133034A136000BF96
:10030000BD4680BC704700BF2000002080B400AF15
:1003100000BFBD4680BC704780B485B000AF0023ED
:10032000FB600023BB6000237B602F4B5B6803F006
:100330000C03FB60FB68082B11D0FB68082B3AD834
:10034000FB68002B03D0FB68042B04D033E0274B61
:10035000274A1A6033E0254B254A1A602FE0224BCA
:100360005B6803F47013BB601F4B5B6803F480335E
:100370007B60BB689B0C0233BB607B68002B06D1A3
:10038000BB681C4A02FB03F3184A136017E0164BC4
:100390005B6803F40033002B06D0BB68154A02FBF0
:1003A00003F3124A13600AE0BB68114A02FB03F32D
:1003B0000E4A136003E00D4B0D4A1A6000BF0A4B52
:1003C0005B681B0903F00F030B4AD35CFB60074B10
:1003D0001A68FB6822FA03F3044A136000BF14375B
:1003E000BD4680BC704700BF0010024000000020E6
:1003F00000127A0000093D00B00400080D4885464F
:10040000FFF784FF0C480D490D4A002302E0D45841
:10041000C4500433C4188C42F9D30A4A0A4C00234E
:1004200001E013600432A242FBD300F011F8FFF7A1
:100430009FFEFEE700500020000000200400002086
:10044000C80400080400002024000020FEE700008B
:1004500070B500260C4D0D4C641BA410A64209D1AA
:1004600000F01AF800260A4D0A4C641BA410A6429C
:1004700005D170BD55F8043B98470136EEE755F8B5
:10048000043B98470136F2E7C0040008C0040008A6
:10049000C0040008C4040008F8B500BFF8BC08BCDC
:1004A0009E467047F8B500BFF8BC08BC9E46704732
:1004B0000000000000000000010203040607080914
:0404C00055010008DA
:0404C40031010008FA
:0404C80000127A00A4
:04000005080003FDEF
:00000001FF
